0100590301321100510420021101010740102015597999797979797997979797111020071110791211102009111081221151176010501HAD TO TAKE EXTRA CLASSES TO KEEP UP IN 5TH GRADE                                                                                                     11154073  03100105010111201107453118396231183963312164703192805227055820111 1 1111011001110101040620002002105    115551517
011379010157410055979997519797997979797559799979797979799797979755              55              2151152979797                                                                                                                                                       2132071  04109797979721               09      09      01193103130029260111 1 1111011001110101040720002002501  02115555557
012106011154419015979997759797997979797559799979797979799797979755              55              200 999979797                                                                                                                                                       203307616  00979797971                09      09      1019260000001323018       1  1001 19901  07    2002 05     1 51  17
012118030202310055979997519797997979797559799979797979799797979755              55              1252142979797                                                                                                                                                       203308213  009797979752               09      09      04192000000009330111 1 1001611001110501  10    2002905    15951  17
0125130101439100511020021101050710102021104200401010101072010202110620071110761255              1151060030198                                                  COULD NOT KEEP UP, LIVING IN ORPHANAGE                                                              1203307112  000105010151205018463018613210186132101846305193103705038400111 1 1111011001110101060620002002505    115551517
0125880201624100510520031101010710102035597999797979797997979797110620071110761211012009111077121151176020505                                                                                                                                                      1204407117  000105010151205049820054894230548943305640105193103617034330111 1 1111011001110101020520002002505    115551557
0131400102012100510620031101010710102025597999797979797997979797111120071110761211082009111077122151122020505                                                                                                                                                      1203307114  000105010141206019826023404230234043302586511193104019042500111 1 1111011001110101070420002002505    115511117
0138570101943100511020031101010720102015597999797979797997979797111120071110761211102009111078121151080010505                                                  NO TRANSPORTATION AND NEEDED TO WORK                                                                1208507124  000105010121108058677064653230646533306642802193103129029700111 1 1111011001110101040420002002505    115551517
014223010164410055979997519797997979797559799979797979799797979755              55              2252110979797                                                                                                                                                       205407020  009797979731               09      09      02193201654016410111 1 1111011001110101020420002002505    555511117
014259020200910055979997519797997979797559799979797979799797979755              55              2151122979797                                                                                                                                                       2164071  03109797979731               09      09      07193102000021170111 1 0011011001110101040920002002101  02115515157
014275020198910055979997519797997979797559799979797979799797979755              55              2252040979797                                                                                                                                                       203307113  009797979731               09      09      08193101356017110111 1 1011011001110101040520002002505    115515157
014428040102510051102001110101083020202159799970797979799797979755              55              1151080010505                                                  WORK ON FARM                                                                                        11121083  0410010501012120900583200583218      1800583207191802563062650111 1 1111011001110101070720002002105    115555557
014535011211710051122003110101074010202559799979797979799797979755              55              2151100030505                                                  GOT MARRIED                                                                                         1203307314  00010501013311001539301539301      010153930619290000003299016     101521001110501  10    2002905    11655  57
015056030007910051042002110101080020202559799979797979799797979715      51      55              1151175010101HELD BACK 2ND GRADE                                                                                                                                   1108507922  000105020211213084914      29      29      04192203661057960111 1 1111011001110101020720002002505    115551517
015140040042117755979997519797997979797559799979797979799797979755              55              1252070979797                                                                                                                                                       102207811  009797979711               09      09      11192301754018420111 1 1111011001110101100820002002502  06115516617
015346020178810055979997519797997979797559799979797979799797979755              55              2151100979797                                                                                                                                                       209507123  009797979712               09      09      03193103505054450111 1 1111011001110101020520002002505    115515157
015784020170410055979997519797997979797559799979797979799797979755              55              1151020979797                                                                                                                                                       2143070  03109797979711               09      09      12193203818036220170 0 0011011001110101050720002002101  02115555557
015897020183710051072003110105071010502559799979797979799797979715      51      15      51      2151122020505                                                                                                                                                      1209507130  000105010113114108034      29      39      09193103411040910111 1 1111011001110101051020002002505    155515117
015981040032510055979997519797997979797559799979797979799797979755              55              1252142979797                                                                                                                                                       208507421  009797979721               09      09      06192802554030270111 1 1111011001110101030720002002505    115515157
0164390302025100511020031101010770102021102200501010101078010202110920071110802211032009111082221151122010505                                                                                                                                                      1208507623  000105010121115067680072185220721853107441209192603161035280111 1 1111011001110101050420002002505    115551517
016711020142310055979997519797997979797559799979797979799797979755              55              1151175979797                                                                                                                                                       2132071  04109797979722               09      09      09193102969028170111 1 1111011001110101050520002002501  02115555557
0168270401093100510820031101010760102025597999797979797997979797110920061110791211042008111080221151100020501HELD BACK IN 3RD GRADE                            R QUIT SCHOOL TO ENTER SERVICE.                                                                     1202207511  000105010122116005548006897230068973200808306192703259034820111 1 1111011001110101050720002002505    115555557
017588040112410051082003110101073010202159799970597979799797979715      75      55              1252040020105                                                  MOVED OUT OF TOWN                                                                                   1202207510  00010501014211700333100333128      2800333108192701712020310111 1 1111011001110101030420002002505    115555557
018155030129710051112001110101072010202559799979797979799797979755              55              1252030030501HELD BACK IN THIRD GRADE                          LEFT SCHOOL TO WORK FARM                                                                            1101107205  00010501014221700263100263101      0100263107192901391016470111 1 1111011001110101050820002002505    115551517
019001020212110055979997519797997979797559799979797979799797979755              55              1252060979797                                                                                                                                                       203307014  009797979732               09      09      01193200660008340111 1 1111011001110101031120002002505    115555557
019117010107820055979997519797997979797559799979797979799797979755              55              2123000979797                                                                                                                                                       202207010  009797979742               09      09      03193200872005450111 1 1111011001110101090920002002505    115511117
019154040058710051122002110101078010202559799979797979799797979755              55              1113000020505                                                  HAD TO WORK                                                                                         1202207811  00020102034211700434700434701      0100434705192401606027280111 1 1111011001110101060720002002105    115555557
019213030016110055979997519797997979797559799979797979799797979755              55              1252080979797                                                                                                                                                       102207910  009797979743               09      09      02192201214011810111 1 1111011001110101030520002002501  02115555557
019488030015710051122002110101076010202559799979797979799797979755              55              1151122020505                                                                                                                                                      12121076  0510010501012321600603200603201      0100603209192602872032050111 1 1111011001110101060520002002501  02115551517
019590010157010051072003110101072010502559799979797979799797979755              55              2151050029805                                                  TO WORK                                                                                             1202207109  00010501014212000314100314101      0100314105193101858019740111 1 1111011001110101020420002002505    555511117
020540030158710055979997759797997979797559799979797979799797979755              55              1151091979797                                                                                                                                                       2143079  03109797979751               09      09      04192301885029860111 1 1111011001110101040520002002501  02115551517
020676040147310055979997519797997979797559799979797979799797979755              55              1151122979797                                                                                                                                                       2132078  04109797979751               09      09      01192403909043590111 1 1111011001110101080720002002501  02115555557
020679040082210055979997759797997979797559799979797979799797979755              55              1151122979797                                                                                                                                                       2132074  04109797979751               09      09      03192804075043500111 1 1111011001110101060420002002101  02115555557
0207120201639100510920031101010710102025597999797979797997979797110920071110751211052009111077122723122020105                                                                                                                                                      1209507124  000201020351121079296093605230936053310345111193101683024350111 1 1111011001110101030620002002505    115515157
021009030081910051032002110101071010202559799979797979799797979755              55              1151164020105                                                                                                                                                      11132071  0310010502025122100785300785301      0100785303193003873041360111 1 1111011001110101100520002002102  03115551517
021117010140110055979997519797997979797559799979797979799797979755              55              2151070979797                                                                                                                                                       2132071  04109797979752               09      09      08193104001042500111 1 11110110011101010204200020022021019555511117
0211900401452100510920021101010730102021102200401010101074010202110120081110781211112009111080221751030989898                                                  HAD TO WORK B/C MOTHER PASSED AWAY                                                                  1203307314  000105020252121019568021561230215613202215309192903648040690111 1 1111011001110101020420002002505    115555557
021192040181310051092003110101081020202110220050101010108202020255              55              1113120010505                                                  WENT TO WORK                                                                                        1206408017  00010501015212101305301305311      1101305305192200628017180111 1 1111011001110101030420002002505    115555557
0211990101634100510320031101010710103025597999797979797997979797110120081110761311112009111078131113122020501HELD BACK 5TH GRADE                               WENT INTO THE SERVICE                                                                               1208507122  000105010152121040852045013220450133204624807193103180020680111 1 1111011001110101030420002002505    555511117
0217550301629100511120031101010730102025597999797979797997979797110820071110771211042009111078121151100020505                                                  TO WORK                                                                                             1204407217  000105010113122052930058321230583213205992205193003414036470111 1 1111011001110101020420002002505    115551517
022035040170110055979997519797997979797559799979797979799797979755              55              2151090979797                                                                                                                                                       203307413  009797979723               09      09      03192803524054520111 1 1111011001110101030620002002505    115515157
022383010212510055979997519797997979797559799979797979799797979755              55              2151143979797                                                                                                                                                       211508124  009797979723               09      09      05192103288034910111 1 1111011001110101040420002002505    555511117
0227840300423100510520031101010780102025597999797979797997979797110220071110812211082008111083252151164010505                                                                                                                                                      1209507721  000105010133223099861123143231231433313803304192502101032490111 1 1111011001110101030420002002505    115511117
0228610401190100510520031101010730102021109200401010101074010204110220071110771211102008111078122252020020105                                                  HELPED TAKE CARE OF SICK MOTHER, AND HELPED WORK ON THE FARM.                                       1203307312  000105010133223006607007918220079183201229812192901189014160111 1 1111011001110101040720002002505    115515157
023021010168510051072003110101071010302559799979797979799797979715      51      11082009111078131151100020501REPEATED 1ST GRADE                                NOT INTERESTED                                                                                      1208507121  000105010142124081686      29      3209247608193104446041350111 1 1111011001110101050420002002505    555511117
0230390101456100511020021101010700102021597999705979797997979797110120071110741555              2151080030501HELD BACK 1YR--4TH GRADE                          TO WORK                                                                                             1203307015  000105010131124007421008894210088942100742106193201702015910111 1 1111011001110101030720002002505    115511117
0234860111412100510820021101010820202035597999797979797997979797110520071110862211122008111088221151164020505                                                                                                                                                      12154075  0310010501014312510035212475023124750331572240719200204402571017     011011001110101110420002002101  02115555557
023500040140610055979997519797997979797559799979797979799797979755              55              2151060979797                                                                                                                                                       202207410  009797979743               09      09      06192804429068480111 1 1111011001110101090420002002505    115515157
0238270400055100510820011101010720102021104200301010501074010202110620061110771211122009111080222751070030105                                                  MISSING INFORMATION                                                                                 1102207210  000105010133225003550004254220042543200660803192902230034470111 1 1111011001110101030420002002505    115515157
023942011181410055979997519797997979797559799979797979799797979755              55              2723122979797                                                                                                                                                       203307712  00979797975                09      09      0619250000000900018     001621001110501  11    2002905    11955  57
024005010162710055979997519797997979797559799979797979799797979755              55              2151122979797                                                                                                                                                       209507035  009797979752               09      09      01193203959042060111 1 1111011001110101020720002002505    555511117
024555040139810051082002110101078010202559799979797979799797979715      51      55              1151122020505                                                  NEEDED TO MAKE MONEY TO SUPPORT FAMILY                                                              12154078  03100105010132112076168      29      29      02192401827019520111 1 1111011001110101050420002002101  02115555557
024884030064810315979997759797997979797559799979797979799797979755              55              1151132979797                                                                                                                                                       102207211  009797979731               09      09      08192901997000000111 1 1111011001150111040920002002511    115  15 7
0252340400097100510720031101010750102021112200401010101076010202110720071130791515      75      1151122029801HELD BACK 4TH AND 8TH GRADES                                                                                                                          1202207409  000105010132119006997007463220074633800699702192804112043910111 1 1111011001110101030920002002505    115555557
025253010160210055979997519797997979797559799979797979799797979755              55              1252122979797                                                                                                                                                       2121070  05109797979732               09      09      01193201119014160111 1 1111011001110101030720002002101  02115551517
0253830101713100510920031101010720102015597999797979797997979797110620071110751215      75      2151122030105                                                                                                                                                      1205407120  000105010113123084437099674230996743808443708193104490047500111 1 1111011001110101030420002002505    115511117
025399040068810055979997519797997979797559799979797979799797979755              55              1151090979797                                                                                                                                                       2132074  04109797979713               09      09      03192804428047310111 1 1111011001110101040420002002101  02115555557
025559040060310055979997519797997979797559799979797979799797979755              55              1151051979797                                                                                                                                                       2154078  03109797979743               09      09      11192401916021380111 1 1111011001110101050920002002101  02115555557
030733020195710055979997519797997979797559799979797979799797979755              55              2151143979797                                                                                                                                                       209507030  009797979711               09      09      05193205150054470111 1 1111011001110101050820002002505    115515157
031061011055010051032002110101075010502111120030101010107701050215      51      55              1151132020505                                                  JOINED NAVY                                                                                         1103307515  000105010152202012478      29      29      0419260267203219016     111011001110101060920002002505    115555557
031337010181710055979997519797997979797559799979797979799797979755              55              1151164979797                                                                                                                                                       204407119  009797979751               09      09      10193104798045520111 1 1111011001110101040620002002505    115511117
031946030208110055979997519797997979797559799979797979799797979755              55              1151164979797                                                                                                                                                       208507424  009797979721               09      09      05192801844020570111 1 1111011001110101060620002002505    115551517
032558010164010055979997519797997979797559799979797979799797979755              55              1151122979797                                                                                                                                                       208507129  009797979711               09      09      11193104161041400111 1 1111011001110101060620002002505    555511117
0327000202104111510620031101050710103025597999797979797997979797110120071110751311062008111076131151122030505                                                                                                                                                      1208507121  000105010132104081784090113230901133309258712193103918041400111 1 1111011001110101050420002002505    555511117
032809040178310055979997519797997979797559799979797979799797979755              55              1151122979797                                                                                                                                                       2143074  03109797979711               09      09      10192803856041170111 1 1111011001110101030620002002101  02115555557
032953030174410055979997519797997979797559799979797979799797979755              55              1151122979797                                                                                                                                                       202207409  009797979711               09      09      04192803856036690111 0 0111011001110101101020002002505    155515517
033677010210510055979997519797997979797559799979797979799797979755              55              1151080979797                                                                                                                                                       208507127  009797979753               09      09      04193101423015280111 1 1111011001110101060620002002505    115551517
03395104004261005103200211010107201020255979997979797979979797971109200611107712110320081110781211511760105014TH GRADE HELD BACK (ILLNESS), 9TH GRADE INJURY                                                                                                       1108507232  000105010131205078164086125230861253308848908192903957042270111 1 1111011001110101050620002002505    115555557
0342220101543100511220021101010700102021104200401010101072010203111120071110751211082009111077121151164020105                                                                                                                                                      1203307113  000105010141106019809021826220218263302242612193103976041200111 1 1111011001110101020420002002505    115551517
034987040198410055979997519797997979797559799979797979799797979755              55              1151164979797                                                                                                                                                       204407218  009797979711               09      09      06193004741045140111 1 1111011001110101080420002002505    155515517
035621020097710055979997519797997979797559799979797979799797979755              55              2151164979797                                                                                                                                                       1164072  03109797979711               09      09      08193204341045900160 0 0111011001110101071120002002101  02115555557
035840040191110051052003110105074010202159799970797979799797979755              55              1151122020505                                                                                                                                                      12132073  0410010501013310900913500913518      1800913501192903793045050111 1 1011011001110101090920002002501  02115555557
035863040195810051102003110101074010303559799979797979799797979715      51      55              1151164020505                                                                                                                                                      1208507332  000105010133109088990      29      29      01192904219045050111 1 1111011001110101070820002002505    115515517
036142030137610055979997519797997979797559799979797979799797979755              55              2151122979797                                                                                                                                                       105407617  009797979722               09      09      06192503666056710111 1 1111011001110101040920002002505    115511117
0362570101633100510220031101010710102025597999797979797997979797110220071110751215      51      1151174020105                                                                                                                                                      1208507028  0001050101311100671460739842307398439      01193203582033990111 1 1111011001110101090420002002505    115511117
036393010163210051022003110301070010502110720040103010107201050255              55              2151100010105                                                  GOT MARRIED                                                                                         1205407020  01010501013111004510204510211      1104510206193200000000000111 1 111101100111010104072000200220502  551111117
036643030021310055979997519797997979797559799979797979799797979755              55              2151122979797                                                                                                                                                       209507225  009797979711               09      09      02193002699034770111 1 1111011001110101030520002002505    555511117
0366770300394100510720021101010720102025597999797979797997979797110920061110761211052008111078121151122020505                                                                                                                                                      1208507322  000105010111113074919082549230825493308481511192903551037930111 1 1111011001110101040520002002505    115551517
037414040158010051112002110101075010202110320040101010107601020215      75      55              1151080020105                                                  HAD TO WORK                                                                                         1203307514  00010502021211402149002149028      2802149007192704308046010111 0 1111011001110101050620002002105    115555557
037602030044810315979997759797997979797559799979797979799797979755              55              1151142979797                                                                                                                                                       110508423  009797979712               09      09      08191703312000000111 1 1111011001150111061020002002512    115  15 7
038806040134710051042002110501072010202110920030105010107301020215      75      55              1151122030105                                                                                                                                                      1104407218  00010501012221504804304804328      2804804310192903310035360111 1 1111011001110101030520002002505    115555557
039191020170210051102003110101071010202110220050101010107201020255              55              2151122020505                                                                                                                                                      1203307016  00010501012111501649201649201      0101649206193203341035350111 1 1111011001110101021020002002505    115515157
039340030212610055979997759797997979797559799979797979799797979755              55              1151122979797                                                                                                                                                       204407620  009797979721               09      09      12192603295035210111 1 1111011001110101030820002002505    115551517
039779020192110055979997519797997979797559799979797979799797979755              55              2151122979797                                                                                                                                                       209507127  009797979722               09      09      04193102652041200111 1 1111011001110101050720002002505    115515157
039969010198310051102003110101071010202110120050101010107301020215      75      55              1151122020505                                                                                                                                                      1204407017  00010501012211602164802164828      2802164801193201439014920111 1 1111011001110101050820002002505    115551517
0401480300607100510520021101010720102035597999797979797997979797110820061110771211042008111078121151175020105                                                  DID NOT NEED PH.D., ALSO FAMILY                                                                     1108507224  000105010122216061958068268230682683307014206192903136033500111 1 1111011001110101050720002002505    115551517
0407110400186100511220021101010730102021106200401010101074010202110420081110781255              1151120010505                                                  LEFT TO WORK                                                                                        1204407318  000105010123116048217048609210486092104821710192903111033220111 1 1111011001110101040720002002505    115555557
040761040146010055979997519797997979797559799979797979799797979755              55              1151152979797                                                                                                                                                       2154072  03109797979733               09      09      06193003731039850111 1 1111011001110101030420002002101  02115555557
041353030003210055979997519797997979797559799979797979799797979755              55              2252050979797                                                                                                                                                       2132073  04119797979732               09      09      07192901472000000111 1 1111011001110101051020002002502  06115111117
0417110301154100511120011101010740102025597999797979797997979797110720061110791211022008111081222151132010505                                                                                                                                                      1109507425  000105010142217072523085610230856103309461501192702227034430111 1 1111011001110101030520002002505    115511117
041721040090010055979997519797997979797559799979797979799797979755              55              1151080979797                                                                                                                                                       103307712  009797979732               09      09      06192402453000000111 1 111001500412010506  2000    509    5553 11 7
042336020162510055979997519797997979797559799979797979799797979755              55              1151122979797                                                                                                                                                       2154070  03109797979731               09      09      02193200883009140111 1 1111011001110101060520002002101  02115555557
0425340300208100511020021101010740102021101200401010101075010202110220071110781211082008111080221151110020105                                                  JOINED MARINE CORP                                                                                  1204407418  000105010131211032472035779220357793203676103192802094022370111 1 1111011001110101080620002002505    115551517
042556010177810051122003110101071010303559799979797979799797979715      51      55              2151132020505                                                                                                                                                      1209507026  000105010131111078539      29      29      08193202270024120111 1 1111011001110101091020002002505    555511117
043122010164310055979997519797997979797559799979797979799797979755              55              2123164979797                                                                                                                                                       209507025  009797979732               09      09      04193202488020500111 1 1111011001110101060620002002505    555511117
0432920401884100510320031101010740102021108200401010101075010202110120071110781211062008111079121151122030105                                                                                                                                                      12154074  03100105010132118041193045388230453883304663412192800960010250111 1 1111011001110101070520002002101  02115555557
0435200301585100511220021101010720102021597999705979797997979797111020071110771255              1113080020505                                                  HAD TO WORK                                                                                         1201107201  000201020342117004207004241210042412100420708193001606027280111 1 1111011001110101070720002002505    115551517
044027030159310055979997519797997979797559799979797979799797979755              55              1151175979797                                                                                                                                                       2143072  03109797979742               09      09      10193004112043910111 1 1111011001110101020520002002101  02115551517
0441350402072100510720031101010760102025597999797979797997979797110720071110802211022009111081222151132020505                                                  TO HAVE CHILDREN                                                                                    1205407519  000105010142119084526104233231042333311683603192704959076680111 1 1111011001110101030720002002505    115515157
0441530401499100510220031101010780102021108200401010101080020202110720071110832555              2151080020505                                                  PARENTS WERE ALWAYS FIGHTING, R STAYED HOME SO THEY WOULDN'T HURT EACH OTHER                        1202207811  000105010142119011518018189210181892101151807192404959076680111 1 1111011001110101030520002002505    115515157
044173010211510055979997519797997979797559799979797979799797979755              55              2151080979797                                                                                                                                                       209507123  009797979742               09      09      01193104456047320111 1 1111011001110101030420002002505    555511117
044265040146810055979997519797997979797559799979797979799797979755              55              2151122979797                                                                                                                                                       203307215  009797979733               09      09      11193004331066970111 1 1111011001110101050720002002505    115515157
044369030166610055979997519797997979797559799979797979799797979755              55              1151070979797                                                                                                                                                       204407818  009797979723               09      09      09192402872032050111 1 1111011001110101030620002002505    115551517
045057020184810055979997519797997979797559799979797979799797979755              55              2252122979797                                                                                                                                                       2164070  03109797979732               09      09      02193201759019230111 1 1111011001110101061020002002501  02115515157
0451000201839100510520031101010720102021109200401010101073010202110420081110771211092009111078121151122020505                                                  HAD TO WORK ON FARM                                                                                 1202207111  000105010132119003000003024220030243300329802193101645015610111 1 1111011001110101061120002002105    115555557
045183010211611151042003110101071010502559799979797979799797979755              55              2151100020101HELD BACK 9TH GRADE FOR GOOFING OFF               GOT TIRED OF SCHOOL                                                                                 1203307112  00010501013211900822900822901      0100822909193101852017640111 1 1111011001110101070420002002505    555511117
046135010201710055979997519797997979797559799979797979799797979755              55              2151122979797                                                                                                                                                       205407118  009797979752               09      09      08193104327045940111 1 1111011001110101031120002002505    555511117
046163010192210055979997519797997979797559799979797979799797979755              55              1151132979797                                                                                                                                                       208507124  009797979751               09      09      01193105439050580111 1 1111011001110101050520002002505    555511117
046555030212410055979997519797997979797559799979797979799797979755              55              1151164979797                                                                                                                                                       208507222  009797979751               09      09      08193003815040740111 1 1111011001110101040720002002505    115551517
047030030077410051052002110101082020202559799979797979799797979755              55              1113122020505                                                                                                                                                      11121081  0510020501015122100336000336001      0100336002192000722000000111 1 1111011001110101061120002002101  02115115157
0470610101728100511220031101010710102015597999797979797997979797110120081110751211112009111077122252070020505                                                  HAD TO WORK                                                                                         1203307016  000105010152121021283025124230251243302776602193204175045620111 1 1111011001110101040920002002505    115511117
047074030108710055979997519797997979797559799979797979799797979755              55              1113080979797                                                                                                                                                       2132072  04109797979752               09      09      03193001543026210111 1 1111011001110101040520002002101  02115555557
047320030208410055979997519797997979797559799979797979799797979755              55              1151122979797                                                                                                                                                       2143072  03109797979752               09      09      02193003571039840111 1 1111011001110101030920002002501  02115551517
047387040195510051032003110101080020201559799979797979799797979715      51      55              1151080020501HELD BACK 1 YEAR IN KINDERGARTEN                  LEFT HOME TO WORK                                                                                   1210508027  000105010152121089813      29      29      10192203232078970111 1 1111011001110101051020002002505    115551517
0473920101961100510320031101010710102025597999797979797997979797110120081110761111112009111077111151153020501HELD BACK 1 YEAR IN 8TH GRADE                                                                                                                         1204407118  000105010152121050123055228230552283305674412193103446034540111 1 1111011001110101070820002002505    115551517
047709030038210051122001110101075010202559799979797979799797979715      51      55              1151132020505                                                  RESPONDENT LEFT COLLEGE TO WORK                                                                     1108507524  000105010152220071986      29      29      11192603752040060111 1 1111011001110101040620002002505    115551517
048356020162610051092003110301071010505559799979797979799797979755              55              2151142020505                                                  GOT MARRIED                                                                                         12164070  0311010501011312308664308664301      0108664306193200000000000111 0 01110110011101010606200020022020915551111117
0485070201407100510820021101010710101021112200401010101073010102110820071110761111042009111078111151030010505                                                  SICKLY ALL THE WHILE WHEN YOUNGER                                                                   1201107107  000105010113122005090005131220051313200559603193103185033010111 1 1111011001110101030420002002505    115555557
0485310302040100510820031101010720102025597999797979797997979797110820071110761211042009111078121151080020505                                                  TO WORK AND DIDN’T WANT TO GO TO SCHOOL                                                             1204407220  000105010113122052930058321230583213305992209193003414036470111 1 1111011001110101060820002002505    115511557
048604020208710055979997519797997979797559799979797979799797979755              55              1151122979797                                                                                                                                                       203307112  009797979713               09      09      07193103110029500111 1 1111011001110101030820002002505    115555557
048629020204310055979997519797997979797559799979797979799797979755              55              2151132979797                                                                                                                                                       209507127  009797979713               09      09      06193103462036620111 1 1111011001110101070820002002505    115515157
048870040005210055979997519797997979797559799979797979799797979755              55              2151122979797                                                                                                                                                       1121072  05109797979713               09      09      12192905498085010111 1 1111011001110101040820002002105    115515157
0491750400553100510820021101010760102021109200401010101078010202110720071110812215      51      1151080020505                                                  FATHER SAID, "IT'S TIME TO GO TO WORK."                                                             1204407618  0001050101231220440080547082205470839      05192602923031220111 1 1111011001110101030520002002505    115555557
0491780401751100510820031101010730102025597999797979797997979797110720071110771211042009111079121151122020505                                                                                                                                                      1208507221  000105010123122061675067956230679563306982203193002923031220111 1 1111011001110101070620002002505    115555557
0491990101622100510120031101010710102035597999797979797997979797111020061110741211042008111076121151164020105                                                                                                                                                      1208507125  000105010151122055815061499220614993206318812193102727028250111 1 1111011001110101060620002002505    115551517
049512040157710055979997519797997979797559799979797979799797979755              55              1151164979797                                                                                                                                                       2132078  04109797979723               09      09      12192403374036030111 1 1111011001110101060720002002501  02115555557
049608010160810055979997759797997979797559799979797979799797979755              55              1151080979797                                                                                                                                                       203307115  009797979723               09      09      02193103367038290111 1 1111011001110101060620002002505    115551517
049713010174510055979997519797997979797559799979797979799797979755              55              2151122979797                                                                                                                                                       209507129  009797979753               09      09      11193103421036190111 1 1111011001110101040920002002505    115511117
049799040202410055979997519797997979797559799979797979799797979755              55              1151080979797                                                                                                                                                       208507527  009797979723               09      09      07192703072029150111 1 1111011001110101030620002002505    115555557
0501320301110100510620021101010730102025597999797979797997979797110820061110771211052008111079121151122010501HELD BACK IN 3RD GRADE.                                                                                                                               1108507221  000105010123223055820061505230615053206319404192902826031530111 1 1111011001110101060820002002505    115551517
050376040163110055979997519797997979797559799979797979799797979755              55              1151101979797                                                                                                                                                       2154072  03109797979723               09      09      08193002917032540111 1 1111011001110101060720002002101  02115555557
050432040109110051112003110301081020202559799979797979799797979755              55              1151121989898                                                                                                                                                      22121080  0511010501012312300973400973401      0100973405192200000000000111 1 1111011001110101050620002002101  02111155557
050530020178210055979997519797997979797559799979797979799797979755              55              2151132979797                                                                                                                                                       209507129  009797979723               09      09      12193103083032610111 1 0111011001110101040820002002505    115515157
050822040129810315979997759797997979797559799979797979799797979755              55              1151090979797                                                                                                                                                       1132073  04109797979723               09      09      02192802983000000111 1 1111011001150111091120002002111    115  55 7
051044040079210055979997519797997979797559799979797979799797979755              55              2151000979797                                                                                                                                                       102208110  009797979723               09      09      11192003314050400111 1 1111011001110101050520002002505    115515157
0510620412080190110820031101010720105011112200401050101073010503110220081110771515      75      1151122020101                                                                                                                                                      12132072  0410010501014 12300703400709122007091380070341219300000003469018       1  1001 19901  10    2002 02  02 1 55  57
051098020192310055979997519797997979797559799979797979799797979755              55              2151090979797                                                                                                                                                       202207110  009797979743               09      09      05193101625019500111 1 1111011001110101071120002002505    155515117
051538020151310051032003110101070010204559799979797979799797979755              55              1151132029898                                                  DK                                                                                                  22121070  0510010501013322300326400326401      0100326405193201625016840111 1 1111011001110101070720002002101  02115555557
051558040173910051052003110101073010202110920040101010107501020215      75      55              1151112020505                                                                                                                                                      12143073  0310010501013322301220401220428      2801220408192901672018650111 1 1111011001110101060420002002101  02115555557
0516390301810100510620031101010770102031110200401010101079010502110520071110812511112008111083251252100020505                                                  WENT TO WORK                                                                                        1203307715  000105010143124007752008268220082683200852309192501401016600111 1 1111011001110101080720002002505    115551517
0517880401566100510220031101010730102025597999797979797997979797110520071110771211112008111078121151100020105                                                  HAD TO GO TO WORK                                                                                   1203307214  000105010143124008910009817230098173201008701193001735018530111 1 1111011001110101040720002002505    115555557
052171030196610055979997519797997979797559799979797979799797979755              55              1151111979797                                                                                                                                                       204407319  009797979743               09      09      08192903455036900111 1 1111011001110101040920002002505    115551517
052258040176910055979997519797997979797559799979797979799797979755              55              1151081979797                                                                                                                                                       2154072  03109797979743               09      09      09193000000017380150 0 1101521001110501  11    2002901  0251951  17
052414040046110051022002110101074010202159799970597979799797979715      51      55              1252080020505                                                  RESPONDENT LEFT TO WORK                                                                             1103307415  000105010143224008040      29      29      03192701672019810111 1 1111011001110101030420002002505    115555557
0525720111404100510820021101010750102021112200301010101077010203110520071110802211122008111082221151120020505                                                                                                                                                      12154076  0310010501014312507896808422422084224320868231119260168102023015    1111011001110101060420002002101  02115555557
052612010162810055979997519797997979797559799979797979799797979755              55              2151122979797                                                                                                                                                       209507126  009797979743               09      09      09193101960020810111 1 1111011001110101070520002002505    555511117
052695030187010055979997519797997979797559799979797979799797979755              55              1151100979797                                                                                                                                                       2143074  03109797979743               09      09      10192801292017230111 1 01110110011101010309200020022020302555511117
052829011145410051122003110105079010202559799979797979799797979755              55              2151100979797                                                  N/A                                                                                                 1202207809  00010501014312500879900879901      010087990519240000005858018     001521001110501  06    2002905    11655  57
0529460101768100510720031101010710102025597999797979797997979797110420081110761211092009111077121151142020501HELD BACK IN 3RD GRADE                            FINANCES                                                                                            1208507125  000105010133124072988080421230804213308262912193103565036950111 1 1111011001110101070820002002505    115551517
053094040203610055979997519797997979797559799979797979799797979755              55              2151100979797                                                                                                                                                       202208110  009797979733               09      09      06192104249064610111 1 1111011001110101061120002002505    115515157
053255030077210055979997519797997979797559799979797979799797979755              55              2151070979797                                                                                                                                                       102208109  009797979733               09      09      03192003840058400111 1 1111011001110101020720002002505    115511117
053856030022810055979997519797997979797559799979797979799797979755              55              1151175979797                                                                                                                                                       208507422  009797979752               09      09      08192803639040610111 1 1111011001110101020520002002505    115551517
053910040096810055979997519797997979797559799979797979799797979755              55              1151070979797                                                                                                                                                       201107705  009797979752               09      09      05192503794040530111 1 1111011001110101050520002002505    115555557
0543360400606100510620021101010730102025597999797979797997979797110820071150781215      51      2151122010505                                                  LEFT TO WORK AND MARRY.                                                                             1109507228  0001050101532261080341275292312752939      02192904415068290111 1 1111011001110101030820002002505    115511117
0546730111917100511120031101010710102021102200501010101073010202110720061110741211022008111076121252122020505                                                                                                                                                      1203307016  00010501013221200311000313522003135320034190219320041700477017      11011001110101100820002002505    115555557
054965010208310051092003110101071010502559799979797979799797979715      75      55              1151142010505                                                  STOPPED BECAUSE OF MONEY                                                                            1203307013  00010501014211800580200580228      2800580208193201298012070111 1 1111011001110101051020002002505    555511117
0550120301944111511120031101010740101035597999797979797997979797110120071110771111072008111079111151174020101HELD BACK IN 8TH GRADE, DIDN’T KNOW FRENCH                                                                                                            1208507327  000105010132118028732031658230316583303252706192901207014540111 1 1111011001110101040420002002505    115511117
055601040073010051112001110101071010202559799979797979799797979755              55              1151090030505                                                  ARMY                                                                                                11132071  0410010501013221800367100367101      0100367103193001811020200111 1 1111011001110101050720002002101  02115555557
055711040119910055979997519797997979797559799979797979799797979755              55              1151164979797                                                                                                                                                       1121077  05109797979731               09      09      12192401286012580111 1 1111011001110101060720002002102  04155515517
055831030030510055979997519797997979797559799979797979799797979755              55              2151122979797                                                                                                                                                       109507226  009797979733               09      09      03192901198018550111 1 1111011001110101071020002002505    115511117
057170010176310051092003110105071010402110120050101050107201040255              55              2252091010505                                                  GOT MARRIED                                                                                         1202207009  00010501012110300291100291111      1100291107193201860018270111 1 1111011001110101060920002002505    555511117
057246010181110055979997519797997979797559799979797979799797979755              55              1252080979797                                                                                                                                                       203307012  009797979721               09      09      06193200000021170111 1 1001521001110501  11    2002905    11951  17
057976040121110055979997519797997979797559799979797979799797979755              55              1252122979797                                                                                                                                                       1154073  03109797979742               09      09      10192801489017660111 1 1111011001110101060720002002101  02115555557
058798040086710051062002110101076010502559799979797979799797979755              55              1252120010505                                                                                                                                                      11121076  0410010501012221500733500733501      0100733507192503897024940150 0 11110110011101010509200020022020206555511117
059420030026210051112001110105076010202559799979797979799797979755              55              1252164020105                                                                                                                                                      11132076  0410010501013221700274000274001      0100274004192501391000000111 1 111001500212010509  2000    109    1157 15 7
059474040077610051062002110101082020302111120030101010108302030315      75      55              2252080020505                                                  HAD TO WORK                                                                                         1101108107  00010501013121000400400400428      2800400406192002205011080111 1 1111011001110101040420002002505    115551517
059598030119110051102002110105076010202111120040101010107801020215      75      55              1751040020505                                                  HAD TO WORK                                                                                         1201107604  00010501013111100255500255528      2800255503192600814011940111 1 0111011001110101070620002002505    115511117
059872030066410051072003110101075010202559799979797979799797979755              55              1252080020505                                                  TO WORK                                                                                             1201107508  00010501014212000255500255501      0100255512192701384016400111 1 1111011001110101060620002002505    115551517
0600050101730100510320031105010710103041109200401050101072010302111120071110761355              2151000979797                                                  WENT TO LYNCHBURG STATE HOME                                                                        1202207111  000105010132119003310003967210039672100331010193101958020790111 1 1111011001110101090920002002505    555511117
060232010146710051082003110101072010202559799979797979799797979755              55              1252050020101HELD BACK IN 3RD AND 4TH GRADES                   HAD TO GO TO WORK                                                                                   1203307116  00010501014312300756200756218      2800756202193101341015730111 1 1111011001110101050520002002505    115551517
060290030163810055979997519797997979797559799979797979799797979755              55              2151122979797                                                                                                                                                       209507227  009797979743               09      09      10193002409037250111 1 1111011001110101080420002002505    115511117
060293010162310051092003110105071010202110320050101050107301020215      51      55              2151102020505                                                                                                                                                      1209507124  000105010112123056083      29      29      10193101843017220111 1 1111011001110101030620002002505    115511117
0603470101833100510820031101010720102025597999797979797997979797111220061110751211072008111077121151121020101HELD BACK 1ST GRADE, 9TH GRADE SPECIAL INSTRUCTION                                                                                                    1208507128  000105010143123034093037565230375653303859603193101819017260111 1 1111011001110101050720002002505    115551517
0607170201620100510620031101010710105035597999797979797997979797110520071110751511112008111077151151122020105                                                                                                                                                      1208507123  000105010143124036815040564230405643304167811193101579018640111 1 1111011001110101030520002002105    155515517
060885030054310055979997519797997979797559799979797979799797979755              55              100 000979797                                                                                                                                                       1143076  03109797979743               09      09      06192501871018750130 1 1111011001110101030720002002101  02115551517
0613260301557100511020031101050740105021102200501010101075010502110320071110781555              1252122020105                                                                                                                                                      1203307316  000105010132117009569009647210096472100956902192900789019900111 1 1111011001110101050520002002505    555511117
0613520400316100511120011101010800202021104200301010501082020203110720061110852215      75      1252000979797                                                  CAN'T SEE LIGHT, HURT EYES AT YOUNG AGE                                                             1102208011  000105010142217003523004331220043313800352302192101030020400111 1 1111011001110101040820002002505    115555557
061375040160310215979997519797997979797559799979797979799797979755              55              1151164979797                                                                                                                                                       203308113  009797979731               09      09      01192101489014810111 1 1111011001110101040620002002505    155515517
0621080111289100510920031101010750102021103200501010101077010203111020061110791215      51      1113060020501TUTORING FOR 2 YEARS                              TO HELP FATHER; TO WORK                                                                             12132074  041001050101511020082170090542200905439      1019270432404052016    0111011001110101070720002002101  02115555557
063396040114510051052002110101072010202559799979797979799797979755              55              2113030989898                                                  SCHOOL WASN'T REQUIRED OR CALLED FOR                                                                1102207211  00020102034120600291100291118      2800291110192901529021000111 1 1011011001110101100620002002505    115515157
063893020190010051082003110101072010202159799970797979799797979755              55              1713020020505                                                  R WAS AN ORPHAN, HAD TO WORK                                                                        1202207110  00020102035110200329800329818      1800329806193101850020100150 0 1111011001110101090820002002505    115555557
064891010176010051072003110101071010202559799979797979799797979715      75      55              1113020019797                                                  POVERTY, HAD TO WORK                                                                                1204407019  00020102034212602629802629828      2802629803193200616018120111 1 1111011001110101100820002002505    115511517
065182030148010055979997759797997979797559799979797979799797979755              55              1113040979797                                                                                                                                                       202207210  009797979742               09      09      04193001566026610111 1 1111011001110101080620002002505    115551517
065214030193210055979997519797997979797559799979797979799797979755              55              1713050979797                                                                                                                                                       2143073  03109797979742               09      09      05192901735028440130 1 1111011001110101090920002002101  02115551517
0660310401650100510820031101010720102025597999797979797997979797110420081110771215      51      2113060020105                                                  WENT TO HELP HER MOTHER; BEGAN WORKING                                                              1203307214  0002010203531260102030120442201204439      11193000724021870111 1 1111011001110101050920002002505    115515157
0712720110503100510420021101010730103021109200301010101075010303111020061110781355              1151165020105                                                                                                                                                      1108507325  00010502031120103790903821721038217210379090819280191901924015  0 1111011001110101030620002002505    115555557
072001030159410055979997519797997979797559799979797979799797979755              55              1113122979797                                                                                                                                                       203307413  009797979751               09      09      05192802138036320111 1 1111011001110101050420002002505    115551517
0722740102028111510920031101010720102025597999797979797997979797110920071110761215      51      1123060020505                                                  HAD TO WORK                                                                                         1203307116  0002010203511020036410040122300401239      02193102131007570111 0 1111011001110101080920002002505    515511117
072506020179010051042003110101071010502559799979797979799797979715      75      55              1113122010105                                                                                                                                                      1203307116  00010501015110201604101604128      2801604112193104673033360150 0 1111011001110101060720002002505    555511117
072618010203310055979997519797997979797559799979797979799797979755              55              2713143979797                                                                                                                                                       205407119  009797979751               09      09      09193104185034500111 1 1111011001110101050720002002505    555511117
073112010171410055979997519797997979797559799979797979799797979755              55              1151142979797                                                                                                                                                       2154071  03109797979721               09      09      11193100000029320111 1 0101521001110501  09    2002901  0211955  17
073527030193510055979997519797997979797559799979797979799797979755              55              1252070979797                                                                                                                                                       203307415  009797979711               09      09      04192800000015810111 1 0001521001110501  08    2002905    11955  17
073961040045510051112002110101075010201559799979797979799797979715      51      55              2151142020505                                                  WORK                                                                                                1209507529  000105010151105101952      29      29      08192704887075580111 1 1111011001110101040620002002505    115515157
074032010193310055979997519797997979797559799979797979799797979755              55              2151132979797                                                                                                                                                       209507025  009797979751               09      09      03193200000041440111 1 1101511001110501  08    2002905    55951  17
074597020179410055979997519797997979797559799979797979799797979755              55              2751143979797                                                                                                                                                       209507023  009797979741               09      09      03193201796016790111 1 1111011001110101040720002002505    115515157
0747970201840100511120031101010710105021103200501010501073010502111020071110751511082009111077152113030010505                                                  AFTER 3RD GRADE THERE WAS NO FURTHER SCHOOLING WHERE R LIVED                                        1205407017  000201020341206015286018044230180443201994201193200965008600111 1 1111011001110101070720002002505    555511117
075664040185910055979997519797997979797559799979797979799797979755              55              1151122979797                                                                                                                                                       2154079  03109797979721               09      09      06192303129029700150 0 1111011001110101070920002002101  02115555557
075886030149110055979997519797997979797559799979797979799797979755              55              1252100979797                                                                                                                                                       203307412  009797979731               09      09      08192801593018880111 1 1111011001110101070720002002505    115551517
075915040206510055979997519797997979797559799979797979799797979755              55              1252122979797                                                                                                                                                       204407319  009797979731               09      09      06192901593018880111 1 1111011001110101050620002002505    115555557
075924030144110051102002110101075010202559799979797979799797979755              55              1151176010501KINDERGARTEN TWICE                                                                                                                                    1202207509  00010501013120900336700336701      0100336708192701892021130111 1 1111011001110101050620002002505    115551517
076230010163010055979997519797997979797559799979797979799797979755              55              2151172979797                                                                                                                                                       209507128  009797979732               09      09      03193104030038380111 1 1111011001110101020420002002505    555511117
076277020156412255979997519797997979797559799979797979799797979755              55              1252030979797                                                                                                                                                       2132070  04109797979731               09      09      02193201245022090111 1 11110110011101010705200020022020302555511117
076368040144710055979997519797997979797559799979797979799797979755              55              2252132979797                                                                                                                                                       203307216  009797979711               09      09      11193001030012270111 1 1111011001110101040520002002505    115515157
076439010207910051082003110101072010102159799970597979799797979715      75      55              2151110020505                                                  DK                                                                                                  1205407118  00010501011111307331607331628      2807331607193103884041250111 1 1111011001110101040920002002505    555511117
0774010201816100510820031101050710102025597999797979797997979797111020071110751511062009111077152151122020101HAD PNEUMONIA, OUT FOR 1 YEAR, STARTED 1ST  LATE                                                                                                      1209507025  000105010121115106816126091231260913313935404193203101032800111 1 1111011001110101060920002002505    115515157
0775400102127100510820031101010720102021104200501010101073010302110920071110761211062009111077121151175010505                                                                                                                                                      1208507123  000105010121115058403064351220643513206611807193102853029560111 1 1111011001110101050820002002505    115551517
077835030204810051072003110101072010202110220050101010107401020215      75      55              1151142010105                                                                                                                                                      1203307213  00010501012111501696201696228      2801696212193003161035280111 1 1111011001110101051020002002505    115551517
077871010208910055979997519797997979797559799979797979799797979755              55              2113122979797                                                                                                                                                       209507027  009797979721               09      09      07193203262029070111 1 1111011001110101060920002002505    555511117
078212040041110055979997519797997979797559799979797979799797979755              55              1151110979797                                                                                                                                                       201107408  009797979722               09      09      02192803259034820111 1 1111011001110101080820002002505    115555557
078320040066310055979997519797997979797559799979797979799797979755              55              1151122979797                                                                                                                                                       102208511  009797979722               09      09      03191602881000000111 1 101001500212010504  2000    509    1157 55 7
078852030065110055979997519797997979797559799979797979799797979755              55              1252080979797                                                                                                                                                       202207910  009797979742               09      09      12192301255006530111 1 1111011001110101050420002002505    115511117
079033030146110055979997759797997979797559799979797979799797979755              55              1252100979797                                                                                                                                                       203307414  009797979732               09      09      05192801741020630111 1 1111011001110101030420002002505    115551517
079059030129510055979997519797997979797559799979797979799797979755              55              1252060979797                                                                                                                                                       201107507  009797979732               09      09      02192701741020630111 1 1111011001110101040520002002505    115551517
0790760101781100510720031101010710102015597999797979797997979797111220061110751211072008111076121252122020505                                                                                                                                                      1204407120  000105010132117027156029922230299223203074310193101480018710111 1 1111011001110101040520002002505    115551517
079266030030410211112001110105073010202159799970797979799797979755              55              1252090030505                                                  LEFT TO GO GET A JOB                                                                                1102207310  00010501013221700300000300001      0100300002192801391015900111 1 1111011001110101040120002003502  06155511517
079991010170710051122003110101071010201559799979797979799797979715      51      55              1151164010505                                                                                                                                                      1208507026  000105010131111035759      29      29      08193201907018100111 1 1111011001110101071020002002505    115551517
0801160300874100511220011101010720102021104200301010501073010202110120071110771211072008111079121151122010505                                                                                                                                                      11154072  03100105010132111068540069098230690983307535806192901706018220111 1 1111011001110101080520002002101  02115551517
0801710201411100510820021101010700102031597999705979797997979797110320071110761511082008111077152252080020505                                                  HAD A FAMILY                                                                                        1202207209  000105010132118002911003489230034893200541812193000660008330111 1 1111011001110101080420002002505    115515157
080200030112112251082002110101072010502110120040101010107401050215      51      11122008111079152252110020505                                                  MARRIED                                                                                             1203307313  000105010132118003065      29      3100570511192900867006570111 1 1111011001110101070520002002505    555511117
080310010161410055979997519797997979797559799979797979799797979755              55              2113000979797                                                                                                                                                       203307014  009797979742               09      09      02193200705008580150 0 1111011001110101070620002002505    155511117
080911010164610055979997519797997979797559799979797979799797979755              55              1151122979797                                                                                                                                                       208507030  009797979733               09      09      07193203269038390111 1 1111011001110101031020002002505    115511117
0809690101621100510720031101010710103025597999797979797997979797111220071110761315      51      2751122020505                                                                                                                                                      1209507122  0001050101421200642680758652307586539      11193101383019740111 1 0011011001110101030720002002505    555511117
0812760101642100511120031101010720105025597999797979797997979797111120071110761511092009111078151252090029805                                                  HAD TO WORK                                                                                         1204407117  000105010132119033859037307220373073303833207193102458023330111 1 1111011001110101080720002002505    555511117
081662010205610055979997519797997979797559799979797979799797979755              55              1113040979797                                                                                                                                                       203307016  009797979751               09      09      05193201850020040111 1 1111011001110101080820002002505    115511117
0817310401474100510320031101010740102021108200401010507076010502110420071110791511092008111080251151070039801HELD BACK BECAUSE OF PRINCIPAL                    JOINED MERCHANT MARINE                                                                              1203307415  000105010151120021767021944220219443202393204192804239045270111 1 1111011001110101050620002002505    115555557
081844030168910055979997519797997979797559799979797979799797979755              55              1151122979797                                                                                                                                                       208507326  009797979751               09      09      12192904197044830111 1 1111011001110101030520002002505    115551517
082698010185410051032003110105071010402559799979797979799797979715      75      55              1113060010505                                                  DIDN'T WANT TO                                                                                      1203307113  00010502035212101002601002628      2801002612193103208020850111 1 1111011001110101060720002002505    555511117
082699040186310051032003110105072010202559799979797979799797979715      51      55              1252143020105                                                  WASN'T INTERESTED                                                                                   1202207211  000105010152121003393      29      29      05193001745020680111 1 1111011001110101080920002002505    115555557
0827870101711100510420031101010710102025597999797979797997979797110720071110761211062009111077111151164020105                                                                                                                                                      1208507126  000105010153121065401072062230720623207404006193103489033110111 1 1111011001110101040620002002505    115551517
082825030150110051012003110101077010202559799979797979799797979755              55              1151152020505                                                  WENT INTO THE SERVICE                                                                               1203307713  00010501015212101911701911701      0101911709192503833040930111 1 1111011001110101040520002002505    115551517
082849011117910315979997759797997979797559799979797979799797979755              55              100 000979797                                                                                                                                                       1154074  03109797979742               09      09      0219270273000000013  1 1111011001150111040820002002111    115  55 7
0829220300907100510420021101010730102035597999797979797997979797110820061110771211032008111079121151164020105                                                                                                                                                      1108507325  000105010152220074117081665230816653308390712192803752040060111 1 1111011001110101050820002002505    115551517
083034040093310051012002110301075010202559799979797979799797979755              55              1151091020598                                                  WENT TO BIBLE COLLEGE INSTEAD AT 16                                                                 1101107505  00010501015222002847202847201      0102847206192603752000000111 1 1111011001110101030420002002501  02115155557
083440010209910055979997519797997979797559799979797979799797979755              55              1151122979797                                                                                                                                                       2154070  03109797979713               09      09      06193204131042800111 1 1111011001110101040820002002101  02115551517
083599030190310055979997519797997979797559799979797979799797979755              55              1151120979797                                                                                                                                                       208507724  009797979713               09      09      11192503414036470111 1 1111011001110101020720002002505    115551517
083899010170310051082003110101071010202159799970597979799797979715      75      55              2151122020505                                                                                                                                                      1203307015  00010501012312201462501462528      2801462501193202964031350111 1 1111011001110101050820002002505    115511117
083904040150010051112002110101074010202110420040101010107601020215      75      55              1151080030505                                                  HAD TO WORK ON FAMILY FARM                                                                          1203307513  00010501012312201501301501328      2801501311192702923031220111 1 1111011001110101050520002002505    115555557
084051040167810055979997519797997979797559799979797979799797979755              55              1151080979797                                                                                                                                                       2132077  04109797979723               09      09      03192503374036030111 1 1111011001110101051020002002101  02115555557
084098030149510055979997519797997979797559799979797979799797979755              55              1151080979797                                                                                                                                                       201108406  009797979723               09      09      01191802752034170111 1 1111011001110101050520002002505    555511517
0844240400071100510820011101010710102021104200301010501073010202110620061110761211012008111077121151122020505                                                                                                                                                      1108507129  000105010123223059156059637230596373206504002193002995031990111 1 1111011001110101050720002002505    115555557
084486030108610055979997519797997979797559799979797979799797979755              55              1151080979797                                                                                                                                                       1132072  04109797979723               09      09      10192902872032050111 1 1111011001110101060920002002101  02115555557
0847720301771100510820031101010760102021112200401010101078010202111220061110802211072008111081221252100020105                                                  LIVED ON FARM, WORKED ON FARM                                                                       1203307613  000105010143123008921009515220095153100980810192601611019100111 1 1111011001110101080420002002505    115551517
084835020168710055979997519797997979797559799979797979799797979755              55              1151120979797                                                                                                                                                       204407120  009797979743               09      09      12193101863019300111 1 1111011001110101050420002002505    115555557
084988010185610051032003110101071010504110720040101010107201050415      75      55              2252060030105                                                  HAD TO WORK ON THE FARM                                                                             1203307015  00010501013322300669000669028      2800669001193201461014340111 1 1111011001110101020820002002505    555511117
085000040149010055979997519797997979797559799979797979799797979755              55              1252010979797                                                                                                                                                       2132072  03109797979733               09      09      09193001405016660111 1 1111011001110101070520002002101  02115555557
0850160101465100510220031101010710101021107200401010101072010104110420071110751111102008111076112252100020105                                                  LIVED ON FARM AND HAD TO STAY HOME AND WORK.                                                        1203307115  000105010133223006690008018220080183201245212193101461014340111 1 1111011001110101080720002002505    555511117
0850960201881100511120031101010710105025597999797979797997979797110520071110751511112008111077152151122020101HELD BACK IN 11TH GRADE                                                                                                                               1205407118  000105010143124030093035523230355233303926011193102574016930111 1 1111011001110101070720002002505    555511117
085184040184710055979997519797997979797559799979797979799797979755              55              1151164979797                                                                                                                                                       2154072  03109797979743               09      09      04193003265034870111 1 1111011001110101030820002002501  02115555557
085215020163510055979997519797997979797559799979797979799797979755              55              2151121979797                                                                                                                                                       209507128  009797979743               09      09      01193101759018610111 1 1111011001110101060720002002505    115515157
085314030166410051042003110101076010202110820040101010107701020415      51      55              1151060010505                                                  EXPELLED                                                                                            1203307616  000105010131124009203      29      29      12192600000019700111 1 1101521001110501  08    2002905    11955  17
085411010161910055979997519797997979797559799979797979799797979755              55              1151152979797                                                                                                                                                       208507023  009797979743               09      09      09193203223033390111 0 0111011001110101080620002002505    115551517
085481040209210055979997519797997979797559799979797979799797979755              55              1151122979797                                                                                                                                                       203307516  009797979743               09      09      01192702360032880111 1 1111011001110101050720002002505    555511117
085814040165610055979997519797997979797559799979797979799797979755              55              1151080979797                                                                                                                                                       2154078  03109797979743               09      09      11192401810019340111 1 1111011001110101061020002002501  02115555557
085880010191810051042003110105070010204110920040101010107201020215      75      55              1151132010505                                                  GOT MARRIED                                                                                         1208507021  00010501014312503089703089728      2803089705193201648015640111 1 1111011001110101051020002002505    115551517
086184011013710051082001110101081020502111120020101010108202050215      75      55              2223081020505                                                  HAD TO WORK                                                                                         1102208210  00010501013322500353400353428      280035341219190156401977015    1111011001110101020420002002505    555511117
086450010190610051092003110101071010202159799970797979799797979755              55              1151164010101FAILED 5TH GRADE                                                                                                                                      1204407019  00010501015212605322005322018      1805322004193203538036670111 1 1111011001110101031020002002505    115551517
0865080111554100510120031101010770102025597999797979797997979797110620071110812211112008111083221151164010505                                                                                                                                                      1201107708  00010501015212600645000801823008018330093971019250357604307013  1 1111011001110101040620002002505    115555557
087361040053110055979997519797997979797559799979797979799797979755              55              1151120979797                                                                                                                                                       1174083  03109797979733               09      09      02191801395022100111 1 1111011001110101080820002002101  02115555557
087465040076910315979997759797997979797559799979797979799797979755              55              1151152979797                                                                                                                                                       1132078  03109797979733               09      09      02192300850000000111 1 1111011001150111050920002002111    115  55 7
088265030049710051052002110101071010202111220030101010107301020215      51      55              1113040020505                                                  WENT TO WORK                                                                                        1102207111  000201020343226003238      29      29      06193001974033550111 1 1111011001110101070920002002505    115551517
1391350201902100510720031101010740102035597999797979797997979797110920071110781211032009111080221151164020105                                                                                                                                                      1208507428  00010501012111509660310644123106441331093641219281122711772316     111011001110101060520002002505    115555557
